:060000000A128A11122809
:10000800FE00030EF4000408F5000A08F600831247
:1000180003137F08F7000A128A1115280A128A1199
:10002800BA298B1C2E2883308B10861406110B12CC
:100038008B168100D230831681000330F801F90154
:10004800FA00FB017B08F1007A08F000D1200A12BF
:100058008A1153280B11F80A0319F90A78087D3A0E
:100068007904031D5328FF30F801F901FA07031C2E
:10007800FB037B08F1007A08F000D1200A128A11EC
:100088007B087A04031D5328B721861006156E21B4
:100098000A128A115F200A128A118B120B1677082E
:1000A800B721FF0076088A0075088400740E830063
:1000B800FE0E7E0E09007C0A03197D0A031D6728BF
:1000C800F001F101D128B721071C7D287D08210600
:1000D800031D70287C082006031D7D28F001F00A06
:1000E800F101D1200A128A11B721A00A0319A10A25
:1000F8000800871C92287D082306031D85287C0894
:100108002206031D92280230F000F101D1200A12C4
:100118008A11B721A20A0319A30A0800071DA728F4
:100128007D082506031D9A287C082406031DA72898
:100138000330F000F101D1200A128A11B721A40A74
:100148000319A50A0800871DBC287D082706031D7A
:10015800AF287C082606031DBC280430F000F101F6
:10016800D1200A128A11B721A60A0319A70A080082
:10017800071E08007D082906031DC4287C082806D8
:10018800031D08000530F000F101D1200A128A1180
:10019800B721A80A0319A90A08001C29B721850153
:1001A80006128612061386135329B72185010616EF
:1001B800D528B721850106128616D628B7218501CC
:1001C8000616E028B7218501061286120617D728D9
:1001D800B72185010616E928B7218501061286167A
:1001E800EA28B72185010616F328B72185010612EA
:1001F8008612061386175329B72185010616FC288F
:100208000130B7218500D4280130B7218500DB28CB
:100218000130B7218500DF280130B7218500E428A7
:100228000130B7218500E8280130B7218500EE2884
:100238007108003A0319212953297008003A031953
:10024800D228013A0319D928033A0319DD28013ABB
:100258000319E228073A0319E628013A0319EC289A
:10026800033A0319F028013A0319F5280F3A03193C
:10027800F928013A03190029033A03190429013A14
:1002880003190829073A03190C29013A03191029F7
:10029800033A03191429013A031918295329F201B9
:1002A800F3010310720D203E840001308313800790
:1002B800840A0318800AF20A0319F30A7308803AB9
:1002C800FF0080307F02031D6B290530720203187E
:1002D80008005529FF30FC00FD00071C7A29210879
:1002E800F1002008F000A0210A128A11B721871C0A
:1002F80084292308F1002208F000A0210A128A119B
:10030800B721071D8E292508F1002408F000A02137
:100318000A128A11B721871D98292708F100260893
:10032800F000A0210A128A11B721071E0800290827
:10033800F1002808F000A0297C0A03197D0A031D92
:10034800AA297108FD007008FC0008007108803AAD
:10035800F2007D08803A7202031DB4297C087002FD
:1003680003180800A5298312031308002030F80198
:10037800F901FA01FB01831384003E300A128A1145
:10038800DC21FF30FC00FD0083010A128A11CC2910
:100398008316850101308600FF30870088008312AC
:1003A8008501043086008701880190308B00DB29A5
:1003B80064008001840A0406031900340406DD2958
:00000001FF
