:060000000A128A1110280B
:10000800FE00030E83120313A4000408A5000A08C7
:10001800A6000A128A1113280A128A11C7298B1CF2
:100028004C288B108B1A432883308B168100D230D2
:10003800831681008312A001A101861C25285A304D
:1000480026283C30A200A3012308FD002208FC005A
:100058000A30B4210A128A1126210A128A11A8210B
:100068000A128A116B210A128A117108FB007008A2
:10007800FA0093200A128A11061186118A288B1217
:10008800F801F901FA01FB0193200A128A11882864
:100098000B11A00A0319A10A20087D3A2104031DA7
:1000A8008A28FF30A001A101FC07031CFD030A30C8
:1000B800B4210A128A1126210A128A11A8210A12C9
:1000C8008A116B210A128A117108FB007008FA0064
:1000D80093200A128A110230F000F1012308F3007C
:1000E8002208F20026210A128A117D087106031DD2
:1000F8007F287C087006031D832806158A287D083A
:100108007C04031D8A288B120611861526088A008E
:1001180025088400240E8300FE0E7E0E0900A928FF
:10012800870100290130A7280230A7280330A72813
:100138000430A7280530A7280630A7280730A728A5
:100148000830A7280930870000297B08003A0319DE
:10015800AE2800297A08003A03199428013A0319AD
:100168009628033A03199828013A03199A28073A56
:1001780003199C28013A03199E28033A0319A02859
:10018800013A0319A2280F3A0319A428013A0319BE
:10019800A6280029071287120713871308000716D5
:1001A8008712071387130800071287160713871388
:1001B8000800071687160713871308000712871207
:1001C80007178713080007168712071787130800F1
:1001D80007128716071787130800071687160717C9
:1001E80087130800071287120713871708000716D6
:1001F80087120713871708007908003A0319052999
:1002080025297808003A0319CE28013A0319D3287A
:10021800033A0319D828013A0319DD28073A0319C4
:10022800E228013A0319E728033A0319EC28013AAE
:100238000319F1280F3A0319F628013A0319FB2884
:1002480025290800F501F11F3029F009F109F00A04
:100258000319F10AF501F50AF31F3929F209F3091F
:10026800F20A0319F30A0130F506F601F7017108DD
:10027800700403195E29F401F40AF11B47290310DD
:10028800F00DF10D40290310F60DF70D71087302FA
:10029800031D502970087202031C5A297008F202C3
:1002A8007108031CF303F30276140310F10CF00C2D
:1002B800F40B4729750803196629F609F709F60AA0
:1002C8000319F70A7708F1007608F0000800F5012D
:1002D800F31F7529F209F309F20A0319F30AF50164
:1002E800F50AF11F7C29F009F109F00A0319F10A4E
:1002F8007108700403199B29F401F40AF11B882979
:100308000310F00DF10D812971087302031D8E2968
:1003180070087202031C97297008F2027108031C06
:10032800F303F3020310F10CF00CF40B88297508A1
:100338000319A329F209F309F20A0319F30A730846
:10034800F1007208F00008007108F9007008F80060
:100358000A30F000F1017D08F3007C08F200080083
:10036800F000F1017D08F3007C08F200080003307A
:1003780083168600870190308B00831286018701DF
:1003880006118615C629FC01FD01A001A101A201E3
:0A039800A30183010A128A11BB2998
:00000001FF
