:020000040000FA
:020000000528D1
:040002000034003492
:06000A008316FF308500A3
:10001000860183128501860100308F000F28051CA0
:100020000F2816202020860041200F2806300F02BE
:1000300003191B281E2801308F0008008F0A0800B2
:100040000F088207000006345B344F3466346D3489
:100050007D340608063C03195B3406085B3C031933
:100060004F3406084F3C031966340608663C0319F2
:100070006D3406086D3C03197D3406087D3C031978
:10008000063440308D0040308E0046288D0B4928C4
:0800900008008E0B49284628E8
:00000001FF
