:10000000FE2B332B362B382B3A2B3C2B3E2B402B05
:10066400432B83128601542B0630412B5B30412BE4
:100674004F30412B6630412B6D30412B7D3086004D
:10068400542B83121108003A0319492B542B1008D8
:100694008400073004020318542B00308A00013010
:1006A400040782007C230800FF308316850086013E
:1006B400831285018601930194018312051C5F2B2B
:1006C40006308C0000308D0014088F0013088E0053
:1006D400B22383120D0894000C0893000130930791
:1006E4000318940A0030940714089100130890002A
:1006F40032235F2B83128C018D010D08803ACF00C9
:1007040080304F02031D882B20300C020318080090
:1007140083128E018F010F08803ACF0080304F0280
:10072400031D962B20300E020318AA2B01308312CE
:100734008E0703188F0A00308F070F08803ACF0006
:1007440080304F02031DA82B20300E02031C982B6F
:10075400013083128C0703188D0A00308D077F2B1C
:10076400831292018F1FBD2B8E098F098E0A0319E4
:100774008F0A9201920A8D1FC42B8C098D098C0A51
:1007840003198D0A0C080D040319F12B9101910A28
:100794008D1BD82B013003108C0D8D0DFF3E031DD6
:1007A400CD2B0130900010089107CA2B0D080F02C1
:1007B400031DDE2B0C080E02031CE62B0C088E0214
:1007C4000D08031C8F038F02013003108D0C8C0C59
:1007D400FF3E031DE72B01309102031DD82B1208A5
:1007E4000319F92B8E098F098E0A03198F0A0F0832
:0C07F4008D000E088C0008008301562BBD
:00000001FF
